:020000040800F2
:1000000030050020450100084F0F0008690E000868
:100010004D0F0008C9010008DB11000800000000B6
:10002000000000000000000000000000530F000866
:10003000CB01000800000000510F0008550F000818
:100040005F0100085F0100085F0100085F01000810
:100050005F0100085F0100085F0100085F01000800
:100060005F0100085F0100085F0100085F010008F0
:100070005F0100085F0100085F0100085F010008E0
:100080005F0100085F0100085F0100085F010008D0
:100090005F0100085F0100085F0100085F010008C0
:1000A0005F0100085F0100085F0100085F010008B0
:1000B0005F0100085F0100085F0100085F010008A0
:1000C0005F0100085F0100085F0100085F01000890
:1000D0005F0100085F0100085F0100085F01000880
:1000E0005F0100085F0100085F0100085F01000870
:1000F0005F0100085F0100085F0100085F01000860
:100100005F0100085F0100085F0100085F0100084F
:100110005F0100085F0100085F010008B90F0008D7
:100120005F0100085F0100085F0100085F0100082F
:10013000DFF80CD000F036F80048004765120008E0
:10014000300500200648804706480047FEE7FEE7E6
:10015000FEE7FEE7FEE7FEE7FEE7FEE7FEE7FEE777
:10016000B70F000831010008D2B201E000F8012BFE
:10017000491EFBD270470022F6E710B513460A4627
:1001800004461946FFF7F0FF204610BD10B504469F
:1001900004E00B7800F8013B03B1491C521EF8D271
:1001A000204610BD064C074D06E0E06840F0010314
:1001B00094E8070098471034AC42F6D3FFF7BCFF31
:1001C0003014000850140008FEE7704772B6FEE7CE
:1001D0002DE9F84FDFF8C8910024A9F1040B23465C
:1001E0000F2709F1040AABF1040ED1E00125A54067
:1001F00006EA0502AA4276D1DFF8A8C14E68A6EB4E
:100200000C0866452BD00DDC032E34D005DC36B34C
:10021000012E19D0022E2FD11BE0112E16D0122E36
:100220002AD119E0B8F5881F19D006DCB8F5803F4F
:1002300015D0B8F5801F1FD111E0B8F5001F0ED002
:10024000B8F5041F18D10AE0CB6815E0CB681B1D78
:1002500012E0CB6808330FE0CB680C330CE08B68FE
:100260002BB1012B4FF0080303D0456104E00423B8
:1002700002E0056100E00023FF2A01D8064601E004
:1002800000F104064FEA840501D9A5F12005D6F84E
:10029000008007FA05FC28EA0C0803FA05F548EA8D
:1002A0000508C6F800804D68ED0070D53E4DAE697A
:1002B00046F00106AE61AD6924F0030605F00105C4
:1002C00000953A4D06EB050CDCF80850A607360FF2
:1002D00007FA06F825EA0805DFF8D480404503D17F
:1002E0004FF0000825E052E0DFF8C880404502D119
:1002F0004FF001081DE0DFF8C080404502D14FF00B
:10030000020816E0DFF8B480404502D14FF0030840
:100310000FE0DFF8AC80404502D14FF0040808E060
:10032000DFF8A080404502D14FF0050801E04FF012
:10033000060808FA06F848EA0508CCF808804D686F
:10034000D9F80060ED024D4601D5164300E0964312
:100350002E604D68DAF80060AD02554601D51643AF
:1003600000E096432E604D68DBF80060AD035D460B
:1003700001D5164300E096432E604D68DEF800601C
:10038000ED03754601D5164300E096432E60641CCC
:100390000A681646E2407FF429AFBDE8F88F0000F6
:1003A000080401400000111000100240000001404C
:1003B00000080140000C0140001001400014014001
:1003C00000180140001C0140C26821EA02030A40F3
:1003D00043EA0241016170470AB1016170470904B3
:1003E000FBE7000001488068704700001C00002007
:1003F0000248816802781144816070471C00002027
:10040000074810B5016841F010010160032000F0B9
:1004100075F80F2000F006F800F024F8002010BD59
:100420000020024070B50D4D04464FF47A712878D3
:10043000B1FBF0F00A490968B1FBF0F000F0DCFA1A
:1004400048B9102C07D200222146501E00F036F881
:1004500000206C6070BD012070BD00001C000020F9
:10046000280000200C4808B5816941F00101816134
:10047000816901F001010091C16941F08051C161C0
:10048000C06900F0805000900448416821F0E061AC
:1004900041F00071416008BD0010024000000140C1
:1004A000002809DB00F01F02012191404009800073
:1004B00000F1E020C0F8001170470000F0B40E4BCE
:1004C0001B680C46C3F30223C3F10705042D00D9B2
:1004D0000425191D072901D2002300E0DB1E012697
:1004E00006FA05F1491E214099409E40761E1640AD
:1004F0003143F0BC00F07ABE0CED00E0064900F09C
:10050000070208684FF6FF03184040EA0220034A3A
:1005100010430860704700000CED00E00000FA0591
:100520002DE9F0470F46050061D0434E306800F0DA
:100530000700B84209D2306820F007003843306025
:10054000306800F00700B84251D128683B4C810761
:1005500012D5400703D5606840F4E06060602878F9
:10056000000703D5606840F4605060606068A96867
:1005700020F0F000084360602878C00728D0686841
:10058000012810D02168022810D0890700292EDA0E
:10059000616821F0030101436160FFF723FF80469A
:1005A00041F288390DE021688903EFE78901EDE721
:1005B000FFF718FFA0EB0801494502D90320BDE869
:1005C000F0876068696800F00C00B0EB810FEFD134
:1005D000306800F00700B8420BD9306820F00700FF
:1005E00038433060306800F00700B84201D0012085
:1005F000E5E72878400705D56068E96820F4E06001
:10060000084360602878000706D56068296920F4EF
:10061000605040EAC100606000F038F86168084A44
:10062000C1F30311515CC8400649086006480068E0
:10063000FFF7F8FE0020C2E7002002400010024051
:100640001614000828000020200000200448054956
:1006500000684968044AC1F30221515CC8407047F0
:100660002800002000100240261400080448054914
:1006700000684968044AC1F3C221515CC840704710
:100680002800002000100240261400080E4A51687D
:100690000E4801F00C03042B11D0082B0FD10C488D
:1006A000C1F38343C903C05C0AD55168084AC1F34A
:1006B0004041921E515C054A5043B0FBF1F0704737
:1006C00004494843704700000010024000127A00BD
:1006D0000614000800093D002DE9F84F040070D011
:1006E0002078C04DC00749D06868C0F38100012858
:1006F00007D06868C0F38100022809D16868C00388
:1007000006D52868800339D560680028E7D035E031
:100710006068B0F5803F0BD010B1B0F5A02F11D0BC
:10072000286820F480302860286820F4802002E0C7
:10073000286840F480302860606890B1FFF752FE6E
:1007400006460AE0286840F480202860F0E700BFF1
:10075000FFF748FE801B642873D828688003F7D50C
:100760000CE0FFF73FFE064605E000BFFFF73AFE4C
:10077000801B6428F0D828688003F7D420789A4E2C
:1007800080074FF001094FF0000839D5686810F074
:100790000C0F07D06868C0F38100022809D168688F
:1007A000C00306D42868800714D52069012808D121
:1007B00010E02069B0B1C6F80090FFF713FE0746BD
:1007C00005E00AE1FFF70EFEC01B0228C4D8286826
:1007D0008007F7D52868616920F0F80040EAC10079
:1007E00028600DE0C6F80080FFF7FCFD074604E036
:1007F000FFF7F8FDC01B022823D828688007F7D42C
:10080000207800072CD57948A169D9B1C0F80090AB
:10081000FFF7E8FD074604E0FFF7E4FDC01B0228F0
:100820000FD8686A8007F7D571484FF4FA5100680D
:10083000B0FBF1F0009000BF0098411E0091FAD289
:100840000EE080E0C0F80080FFF7CCFD074604E032
:10085000FFF7C8FDC01B022875D8686A8007F7D467
:100860002078400760D5E8690027C00008D4E8690F
:1008700040F08050E861E869012700F08050009066
:100880005C480168C90513D40168834641F480714E
:100890000160FFF7A7FD824606E000BFFFF7A2FD5B
:1008A000A0EB0A0064284ED8DBF80000C005F5D59F
:1008B000E06801280AD008B1052813D0286A20F082
:1008C00001002862286A20F0040002E0286A40F053
:1008D00001002862E06841F2883B98B1FFF782FD91
:1008E00082460BE0286A40F004002862EEE700BF71
:1008F000FFF778FDA0EB0A0159455AD8286A80070E
:10090000F6D50CE0FFF76EFD824605E0FFF76AFDC5
:10091000A0EB0A0159454CD8286A8007F6D41FB1CC
:10092000E86920F08050E861E06988B36968C1F344
:100930008101022944D00228C6F8608004D0FFF764
:1009400051FD044638E034E0FFF74CFD074604E073
:10095000FFF748FDC01B02282BD828688001F7D478
:10096000206AB0F5803F05D16868A16820F40030A6
:1009700008436860D4E908010843696821F47411E8
:1009800008436860C6F86090FFF72CFD044606E057
:1009900025E000BFFFF726FD001B022809D82868C4
:1009A0008001F7D51BE000BFFFF71CFD001B0228EC
:1009B00002D90320BDE8F88F28688001F4D40EE046
:1009C0000128F7D06868226A00F48031914204D18E
:1009D000616A00F47010884201D00120EAE700202B
:1009E000E8E700000010024000004242800442425A
:1009F000280000200070004010B5401EB0F1807F3C
:100A000001D3012010BD4FF0E02460610F21601779
:100A100000F0ECFB0020A06107202061002010BD49
:100A20007047704770B590F83C20012A2CD0012403
:100A300080F83C40022280F83D2003685A689D6897
:100A400022F070060A6832435A60104B02689A42DC
:100A50000ED00F4B9A420BD0B2F1804F08D00D4B05
:100A60009A4205D00C4B9A4202D00C4B9A4204D1C8
:100A7000496825F080031943916080F83D400021CA
:100A800080F83C10084670BD022070BD002C01406B
:100A9000003401400004004000080040000C004009
:100AA00010B5040003D094F83D0010B107E0012018
:100AB00010BD002084F83C00204600F01FF8022002
:100AC00084F83D00211D206800F07CFA012084F8A4
:100AD000460084F83E0084F83F0084F8400084F823
:100AE000410084F8420084F8430084F8440084F80C
:100AF000450084F83D00002010BD000008B50068E6
:100B00000B49884212D10B48C16941F02001C161F3
:100B1000C069002200F02000009011463720FFF746
:100B2000CDFCBDE808403720FFF7BABC08BD000087
:100B3000001400400010024090F83D10012901D03F
:100B400001207047022180F83D100168CA6842F018
:100B50000102CA6000680E4988420ED00D498842E1
:100B60000BD0B0F1804F08D00B49884205D00B491B
:100B7000884202D00A49884204D1816801F0070105
:100B8000062903D0016841F001010160002070478F
:100B9000002C0140003401400004004000080040E7
:100BA000000C004070472DE9F04104460068C6681B
:100BB00005694FF00007A90713D5B10711D5F91E34
:100BC000016101202077206880698007204602D0DB
:100BD000FFF7E8FF04E000F07EF8204600F07CF824
:100BE0002777680716D5700714D521686FF00400C1
:100BF0000861022020772068806910F4407F204639
:100C000002D0FFF7CFFF04E000F065F8204600F0C7
:100C100063F82777280715D5300713D521686FF0BB
:100C200008000861042020772068C06980072046FA
:100C300002D0FFF7B7FF04E000F04DF8204600F0C7
:100C40004BF82777E80616D5F00614D521686FF023
:100C500010000861082020772068C06910F4407FE8
:100C6000204602D0FFF79EFF04E000F034F8204653
:100C700000F032F82777E80708D0F00706D021689F
:100C80006FF001000861204600F028F8280608D51A
:100C9000300606D521686FF0800008612046FFF716
:100CA000BFFE680608D5700606D521686FF04000C3
:100CB0000861204600F01CF8A8060AD5B00608D541
:100CC00021686FF0200008612046BDE8F041FFF781
:100CD000A8BEBDE8F0817047704700000349006876
:100CE0000968884201D100F079BB70479C00002060
:100CF000704770B5040004D094F84100002510B18D
:100D000006E0012070BD84F84050204600F024F831
:100D1000242084F841002068C16821F40051C1609A
:100D2000204600F0C5F92068016921F49041016175
:100D30002068416921F02A0141612068C16841F4BD
:100D40000051C1606564202084F8410084F84200AD
:100D50006563002070BD000030B585B000240094AC
:100D600001940294039400681449884224D11448E1
:100D7000816941F480418161816901F4804104917C
:100D8000816941F00401816180690E4D00F0040029
:100D900004904FF400700090022001900320039013
:100DA00069462846FFF714FA2815CDE9000469467C
:100DB00028460294FFF70CFA05B030BD0038014018
:100DC00000100240000801402DE9F843044690F865
:100DD0004100984616460D46202802D00220BDE864
:100DE000F88385B17EB100206064212084F8410041
:100DF000FFF7F8FAA6848146E684A0682027B0F5BC
:100E0000805F02D003E00120E9E7206910B12E469F
:100E100000250EE000260CE08021204600F0A4F919
:100E2000A8B9C6B116F8010B21684860E08C401ED5
:100E3000E084E08C4B464FF00002CDF800800028A3
:100E4000EAD14FF04001204600F08EF940B184F81D
:100E500041700320C3E735F8020BC0F30800E3E755
:100E600084F841700020BAE7FEE7000030B585B095
:100E7000002414480094019402940394816941F081
:100E800008018161816901F008010491816941F0E3
:100E90000401816180690C4D00F00400049001227E
:100EA00023212846FFF798FA232000900120CDE95E
:100EB00001040220039069462846FFF789F905B02E
:100EC00030BD000000100240000C01401CB50024A1
:100ED0000F4800940D49019401604721C0E90114B5
:100EE00040F2E731C16080218161FFF7D9FD08B18F
:100EF000FFF76CF90094694605480194FFF792FDED
:100F0000002801D0FFF762F91CBD0000001400406A
:100F10009C0000200C4810B50A4901604FF4E131F3
:100F20004160002181600C22C160C0E9041281612E
:100F3000C161FFF7DEFE002803D0BDE81040FFF7D7
:100F400045B910BD00380140E4000020FEE7FEE78F
:100F500070477047FFF74CBA30B58FB0282168460C
:100F6000FFF709F914210AA8FFF705F90121080480
:100F7000CDE900100024029402250491CDE9075028
:100F80004FF4E01009906846FFF7A6FB08B172B66F
:100F9000FEE70F20CDE90A054FF48060CDE90C4053
:100FA00002210AA80E94FFF7BBFA002801D072B6FE
:100FB000FEE70FB030BD70470148FFF7F4BD0000F9
:100FC0009C000020F0B50268204C214D214E224F9C
:100FD000224B4FF0804CA04209D0984207D0604588
:100FE00005D0A84203D0B04201D0B84204D122F0CB
:100FF000700E4A6842EA0E02A04209D0984207D019
:10100000604505D0A84203D0B04201D0B84203D118
:1010100022F44075CA682A434D6922F080022A43AF
:1010200002608A68C2620A688262A04201D0984265
:1010300001D109690163012141610169C90703D037
:10104000016921F001010161F0BD0000002C0140A7
:101050000004004000080040000C00400034014043
:1010600001680C3151E8002F22F4907241E800230E
:10107000002BF5D10168143151E8002F22F0010254
:1010800041E80023002BF5D1016B012909D101684A
:101090000C3151E8002F22F0100241E80023002B10
:1010A000F5D1202180F84210002101637047000033
:1010B00070B5044600680169E26821F440511143AB
:1010C00001612169A0680843616908432168CA6811
:1010D00041F20C639A430243CA6020684169A269E5
:1010E00021F44071114341611E492068884202D1B8
:1010F000FFF7BCFA01E0FFF7A9FA00EBC00101EB32
:101100000012606864218000B2FBF0F3B3FBF1F3DE
:101110006FF018067343B2FBF0F5B2FBF0F605EB87
:101120008305322303EB0515B5FBF1F5B6FBF1F6AC
:1011300005F0F00505EB0615B2FBF0F6B2FBF0F09A
:10114000B0FBF1F06FF01802504306EB800003EBA8
:101150000010B0FBF1F0216800F00F002844886017
:1011600070BD0000003801402DE9F843984617464D
:101170000D460446089E24E0701C22D0FFF732F989
:10118000A0EB0800B0421AD8CEB12068C168490768
:1011900017D5802D15D0402D13D00168C9430907FC
:1011A0000FD401680025406800902046FFF758FFE3
:1011B0000820606484F840500120BDE8F8830320D3
:1011C000FBE72068006835EA000004D00020B84240
:1011D000D2D00020F1E70120F9E7FEE7014A0249F9
:1011E00000F023B84D1200082C0000200907090E5A
:1011F000002804DB00F1E02080F80014704700F0C4
:101200000F0000F1E02080F8141D704702E008C8CC
:10121000121F08C1002AFAD170477047002001E070
:1012200001C1121F002AFBD170472DE9F04116467B
:101230000F460446002503E03946B047641C6D1C88
:1012400020780028F8D12846BDE8F08113B54FF08A
:10125000FF33012269460248FFF7B6FD00981CBD26
:10126000E4000020FFF7CCF8FFF776FEFFF7FEFD65
:10127000FFF72CFEFFF74EFE00F050F800F088F864
:10128000FCE7000010B520210348FFF79DF8BDE8FA
:10129000104002A0FFF7A2BF000C01403132330A18
:1012A0000000000010B501210348FFF78DF8BDE8EC
:1012B000104002A0FFF792BF000C01400A343536FF
:1012C0000A00000002210148FFF77EB8000C01402F
:1012D0000168002319B142680AB14A6011600360D5
:1012E0004360704770B5164604461D460722093014
:1012F000FEF74CFF002020746661C4E9060506482D
:10130000017821720178491C0170246064602046D4
:10131000BDE8704000F052B80800002070B5114CD4
:10132000114B6422656811A11248A84711486568ED
:10133000114B4FF47A7211A12430A8470D4865680B
:10134000104B40F2DC5210A14830A8470948E16830
:10135000483088470748A168483088472069BDE879
:101360007040004708000020851200087461736B0C
:101370005F31000030000020A51200087461736B1B
:101380005F320000C51200087461736B5F330000A8
:1013900070B5094D00262C680AE000BF94F82000C3
:1013A000012804D1E069804784F82060A6612468A0
:1013B000AC42F3D170BD00000000002003494A6830
:1013C0004860C0E900121060704700000000002073
:1013D0000148FFF7B1BB00009C000020084910B590
:1013E0000123086808E08269521C82614469A242B4
:1013F00001D380F8203000688842F4D110BD00008D
:1014000000000020010202030405060708090A0B78
:101410000C0D0E0F10100000000000000000010273
:10142000030406070809000000000102030400008D
:101430005014000800000020300000000C120008CA
:101440008014000830000020000500001C12000875
:10145000000000200000002000000000E51200084D
:10146000BD130008D1120008D113000801000000CC
:10147000100000000000000000127A0000000000D0
:0400000508000131BD
:00000001FF
